{
  "contractName": "HelloBlockchain",
  "abi": [
    {
      "constant": true,
      "inputs": [],
      "name": "ResponseMessage",
      "outputs": [
        {
          "name": "",
          "type": "string"
        }
      ],
      "payable": false,
      "stateMutability": "view",
      "type": "function",
      "signature": "0x5ab28ecb"
    },
    {
      "constant": true,
      "inputs": [],
      "name": "Responder",
      "outputs": [
        {
          "name": "",
          "type": "address"
        }
      ],
      "payable": false,
      "stateMutability": "view",
      "type": "function",
      "signature": "0xd181ada1"
    },
    {
      "constant": true,
      "inputs": [],
      "name": "RequestMessage",
      "outputs": [
        {
          "name": "",
          "type": "string"
        }
      ],
      "payable": false,
      "stateMutability": "view",
      "type": "function",
      "signature": "0xe750e2da"
    },
    {
      "constant": true,
      "inputs": [],
      "name": "State",
      "outputs": [
        {
          "name": "",
          "type": "uint8"
        }
      ],
      "payable": false,
      "stateMutability": "view",
      "type": "function",
      "signature": "0xf1b6dccd"
    },
    {
      "constant": true,
      "inputs": [],
      "name": "Requestor",
      "outputs": [
        {
          "name": "",
          "type": "address"
        }
      ],
      "payable": false,
      "stateMutability": "view",
      "type": "function",
      "signature": "0xfd05116c"
    },
    {
      "inputs": [
        {
          "name": "message",
          "type": "string"
        }
      ],
      "payable": false,
      "stateMutability": "nonpayable",
      "type": "constructor",
      "signature": "constructor"
    },
    {
      "anonymous": false,
      "inputs": [
        {
          "indexed": false,
          "name": "stateData",
          "type": "string"
        }
      ],
      "name": "StateChanged",
      "type": "event",
      "signature": "0x8fbf346523616c015d34c71713ea41bb98008282341b0f191f578d20d7ed26e2"
    },
    {
      "constant": false,
      "inputs": [
        {
          "name": "requestMessage",
          "type": "string"
        }
      ],
      "name": "SendRequest",
      "outputs": [],
      "payable": false,
      "stateMutability": "nonpayable",
      "type": "function",
      "signature": "0xa7a1ba15"
    },
    {
      "constant": false,
      "inputs": [
        {
          "name": "responseMessage",
          "type": "string"
        }
      ],
      "name": "SendResponse",
      "outputs": [],
      "payable": false,
      "stateMutability": "nonpayable",
      "type": "function",
      "signature": "0x829c2d6d"
    },
    {
      "constant": true,
      "inputs": [],
      "name": "getMessage",
      "outputs": [
        {
          "name": "",
          "type": "string"
        }
      ],
      "payable": false,
      "stateMutability": "view",
      "type": "function",
      "signature": "0xce6d41de"
    }
  ],
  "bytecode": "0x608060405234801561001057600080fd5b50604051610c39380380610c398339810180604052602081101561003357600080fd5b81019080805164010000000081111561004b57600080fd5b8281019050602081018481111561006157600080fd5b815185600182028301116401000000008211171561007e57600080fd5b505092919050505033600060016101000a81548173ffffffffffffffffffffffffffffffffffffffff021916908373ffffffffffffffffffffffffffffffffffffffff16021790555080600290805190602001906100dd92919061016f565b5060008060006101000a81548160ff021916908360018111156100fc57fe5b02179055507f8fbf346523616c015d34c71713ea41bb98008282341b0f191f578d20d7ed26e26040518080602001828103825260078152602001807f526571756573740000000000000000000000000000000000000000000000000081525060200191505060405180910390a150610214565b828054600181600116156101000203166002900490600052602060002090601f016020900481019282601f106101b057805160ff19168380011785556101de565b828001600101855582156101de579182015b828111156101dd5782518255916020019190600101906101c2565b5b5090506101eb91906101ef565b5090565b61021191905b8082111561020d5760008160009055506001016101f5565b5090565b90565b610a16806102236000396000f3fe60806040526004361061008e576000357c0100000000000000000000000000000000000000000000000000000000900463ffffffff1680635ab28ecb14610093578063829c2d6d14610123578063a7a1ba15146101eb578063ce6d41de146102b3578063d181ada114610343578063e750e2da1461039a578063f1b6dccd1461042a578063fd05116c14610463575b600080fd5b34801561009f57600080fd5b506100a86104ba565b6040518080602001828103825283818151815260200191508051906020019080838360005b838110156100e85780820151818401526020810190506100cd565b50505050905090810190601f1680156101155780820380516001836020036101000a031916815260200191505b509250505060405180910390f35b34801561012f57600080fd5b506101e96004803603602081101561014657600080fd5b810190808035906020019064010000000081111561016357600080fd5b82018360208201111561017557600080fd5b8035906020019184600183028401116401000000008311171561019757600080fd5b91908080601f016020809104026020016040519081016040528093929190818152602001838380828437600081840152601f19601f820116905080830192505050505050509192919290505050610558565b005b3480156101f757600080fd5b506102b16004803603602081101561020e57600080fd5b810190808035906020019064010000000081111561022b57600080fd5b82018360208201111561023d57600080fd5b8035906020019184600183028401116401000000008311171561025f57600080fd5b91908080601f016020809104026020016040519081016040528093929190818152602001838380828437600081840152601f19601f82011690508083019250505050505050919291929050505061063e565b005b3480156102bf57600080fd5b506102c86106d7565b6040518080602001828103825283818151815260200191508051906020019080838360005b838110156103085780820151818401526020810190506102ed565b50505050905090810190601f1680156103355780820380516001836020036101000a031916815260200191505b509250505060405180910390f35b34801561034f57600080fd5b50610358610849565b604051808273ffffffffffffffffffffffffffffffffffffffff1673ffffffffffffffffffffffffffffffffffffffff16815260200191505060405180910390f35b3480156103a657600080fd5b506103af61086f565b6040518080602001828103825283818151815260200191508051906020019080838360005b838110156103ef5780820151818401526020810190506103d4565b50505050905090810190601f16801561041c5780820380516001836020036101000a031916815260200191505b509250505060405180910390f35b34801561043657600080fd5b5061043f61090d565b6040518082600181111561044f57fe5b60ff16815260200191505060405180910390f35b34801561046f57600080fd5b5061047861091f565b604051808273ffffffffffffffffffffffffffffffffffffffff1673ffffffffffffffffffffffffffffffffffffffff16815260200191505060405180910390f35b60038054600181600116156101000203166002900480601f0160208091040260200160405190810160405280929190818152602001828054600181600116156101000203166002900480156105505780601f1061052557610100808354040283529160200191610550565b820191906000526020600020905b81548152906001019060200180831161053357829003601f168201915b505050505081565b33600160006101000a81548173ffffffffffffffffffffffffffffffffffffffff021916908373ffffffffffffffffffffffffffffffffffffffff16021790555080600390805190602001906105af929190610945565b5060016000806101000a81548160ff021916908360018111156105ce57fe5b02179055507f8fbf346523616c015d34c71713ea41bb98008282341b0f191f578d20d7ed26e26040518080602001828103825260088152602001807f526573706f6e736500000000000000000000000000000000000000000000000081525060200191505060405180910390a150565b3373ffffffffffffffffffffffffffffffffffffffff16600060019054906101000a900473ffffffffffffffffffffffffffffffffffffffff1673ffffffffffffffffffffffffffffffffffffffff1614151561069a57600080fd5b80600290805190602001906106b0929190610945565b5060008060006101000a81548160ff021916908360018111156106cf57fe5b021790555050565b6060600060018111156106e657fe5b6000809054906101000a900460ff16600181111561070057fe5b14156107a85760028054600181600116156101000203166002900480601f01602080910402602001604051908101604052809291908181526020018280546001816001161561010002031660029004801561079c5780601f106107715761010080835404028352916020019161079c565b820191906000526020600020905b81548152906001019060200180831161077f57829003601f168201915b50505050509050610846565b60038054600181600116156101000203166002900480601f01602080910402602001604051908101604052809291908181526020018280546001816001161561010002031660029004801561083e5780601f106108135761010080835404028352916020019161083e565b820191906000526020600020905b81548152906001019060200180831161082157829003601f168201915b505050505090505b90565b600160009054906101000a900473ffffffffffffffffffffffffffffffffffffffff1681565b60028054600181600116156101000203166002900480601f0160208091040260200160405190810160405280929190818152602001828054600181600116156101000203166002900480156109055780601f106108da57610100808354040283529160200191610905565b820191906000526020600020905b8154815290600101906020018083116108e857829003601f168201915b505050505081565b6000809054906101000a900460ff1681565b600060019054906101000a900473ffffffffffffffffffffffffffffffffffffffff1681565b828054600181600116156101000203166002900490600052602060002090601f016020900481019282601f1061098657805160ff19168380011785556109b4565b828001600101855582156109b4579182015b828111156109b3578251825591602001919060010190610998565b5b5090506109c191906109c5565b5090565b6109e791905b808211156109e35760008160009055506001016109cb565b5090565b9056fea165627a7a72305820aa6b2305c50e0fec6cbc14499150f0777ebbcd3f19944fd81451a29a1c65229e0029",
  "source": "pragma solidity ^0.5.0;\n\ncontract HelloBlockchain\n{\n     //Set of States\n    enum StateType { Request, Respond}\n\n    //List of properties\n    StateType public  State;\n    address public  Requestor;\n    address public  Responder;\n\n    string public RequestMessage;\n    string public ResponseMessage;\n\n    event StateChanged(string stateData);\n\n    // constructor function\n    constructor(string memory message) public\n    {\n        Requestor = msg.sender;\n        RequestMessage = message;\n        State = StateType.Request;\n\n        emit StateChanged('Request');\n    }\n\n    // call this function to send a request\n    function SendRequest(string memory requestMessage) public\n    {\n        if (Requestor != msg.sender)\n        {\n            revert();\n        }\n\n        RequestMessage = requestMessage;\n        State = StateType.Request;\n    }\n\n    // call this function to send a response\n    function SendResponse(string memory responseMessage) public\n    {\n        Responder = msg.sender;\n\n        // call ContractUpdated() to record this action\n        ResponseMessage = responseMessage;\n        State = StateType.Respond;\n\n        emit StateChanged('Response');\n    }\n\n    function getMessage() public view returns (string memory)\n    {\n    if (State == StateType.Request)\n        return RequestMessage;\n    else\n        return ResponseMessage;\n    }\n}",
  "sourcePath": "/Users/nromano2/Documents/blockchain/Truffle_Boxes/VScodeHello/contracts/HelloBlockchain.sol",
  "compiler": {
    "name": "solc",
    "version": "0.5.0+commit.1d4f565a.Emscripten.clang"
  },
  "schemaVersion": "3.0.0",
  "updatedAt": "2019-10-30T20:22:43.477Z",
  "devdoc": {
    "methods": {}
  },
  "userdoc": {
    "methods": {}
  }
}